{
	"data": {
		"bytecode": {
			"linkReferences": {},
			"object": "60806040525f5f553480156011575f5ffd5b503360015f6101000a81548173ffffffffffffffffffffffffffffffffffffffff021916908373ffffffffffffffffffffffffffffffffffffffff1602179055506104178061005f5f395ff3fe608060405260043610610042575f3560e01c80631b9265b8146100c757806333cf5080146100d15780633ccfd60b146100fb578063b0f2b72a1461011157610087565b36610087576100856040518060400160405280600781526020017f5265636569766500000000000000000000000000000000000000000000000000815250610139565b005b6100c56040518060400160405280600881526020017f46616c6c6261636b000000000000000000000000000000000000000000000000815250610139565b005b6100cf6101d2565b005b3480156100dc575f5ffd5b506100e56101d4565b6040516100f291906102b2565b60405180910390f35b348015610106575f5ffd5b5061010f6101dc565b005b34801561011c575f5ffd5b50610137600480360381019061013291906102f9565b610243565b005b6101cf8160405160240161014d9190610394565b6040516020818303038152906040527f41304fac000000000000000000000000000000000000000000000000000000007bffffffffffffffffffffffffffffffffffffffffffffffffffffffff19166020820180517bffffffffffffffffffffffffffffffffffffffffffffffffffffffff838183161783525050505061024c565b50565b565b5f5f54905090565b60015f9054906101000a900473ffffffffffffffffffffffffffffffffffffffff1673ffffffffffffffffffffffffffffffffffffffff166108fc4790811502906040515f60405180830381858888f19350505050158015610240573d5f5f3e3d5ffd5b50565b805f8190555050565b6102638161025b610266610285565b63ffffffff16565b50565b5f6a636f6e736f6c652e6c6f6790505f5f835160208501845afa505050565b610290819050919050565b6102986103b4565b565b5f819050919050565b6102ac8161029a565b82525050565b5f6020820190506102c55f8301846102a3565b92915050565b5f5ffd5b6102d88161029a565b81146102e2575f5ffd5b50565b5f813590506102f3816102cf565b92915050565b5f6020828403121561030e5761030d6102cb565b5b5f61031b848285016102e5565b91505092915050565b5f81519050919050565b5f82825260208201905092915050565b8281835e5f83830152505050565b5f601f19601f8301169050919050565b5f61036682610324565b610370818561032e565b935061038081856020860161033e565b6103898161034c565b840191505092915050565b5f6020820190508181035f8301526103ac818461035c565b905092915050565b7f4e487b71000000000000000000000000000000000000000000000000000000005f52605160045260245ffdfea26469706673582212206fe090b14d5a05ef18938fbfc146e0d676d055dcc59d66022e5cf1b5a7bccfda64736f6c63430008220033",
			"opcodes": "PUSH1 0x80 PUSH1 0x40 MSTORE PUSH0 PUSH0 SSTORE CALLVALUE DUP1 ISZERO PUSH1 0x11 JUMPI PUSH0 PUSH0 REVERT JUMPDEST POP CALLER PUSH1 0x1 PUSH0 PUSH2 0x100 EXP DUP2 SLOAD DUP2 PUSH20 0xFFFFFFFFFFFFFFFFFFFFFFFFFFFFFFFFFFFFFFFF MUL NOT AND SWAP1 DUP4 PUSH20 0xFFFFFFFFFFFFFFFFFFFFFFFFFFFFFFFFFFFFFFFF AND MUL OR SWAP1 SSTORE POP PUSH2 0x417 DUP1 PUSH2 0x5F PUSH0 CODECOPY PUSH0 RETURN INVALID PUSH1 0x80 PUSH1 0x40 MSTORE PUSH1 0x4 CALLDATASIZE LT PUSH2 0x42 JUMPI PUSH0 CALLDATALOAD PUSH1 0xE0 SHR DUP1 PUSH4 0x1B9265B8 EQ PUSH2 0xC7 JUMPI DUP1 PUSH4 0x33CF5080 EQ PUSH2 0xD1 JUMPI DUP1 PUSH4 0x3CCFD60B EQ PUSH2 0xFB JUMPI DUP1 PUSH4 0xB0F2B72A EQ PUSH2 0x111 JUMPI PUSH2 0x87 JUMP JUMPDEST CALLDATASIZE PUSH2 0x87 JUMPI PUSH2 0x85 PUSH1 0x40 MLOAD DUP1 PUSH1 0x40 ADD PUSH1 0x40 MSTORE DUP1 PUSH1 0x7 DUP2 MSTORE PUSH1 0x20 ADD PUSH32 0x5265636569766500000000000000000000000000000000000000000000000000 DUP2 MSTORE POP PUSH2 0x139 JUMP JUMPDEST STOP JUMPDEST PUSH2 0xC5 PUSH1 0x40 MLOAD DUP1 PUSH1 0x40 ADD PUSH1 0x40 MSTORE DUP1 PUSH1 0x8 DUP2 MSTORE PUSH1 0x20 ADD PUSH32 0x46616C6C6261636B000000000000000000000000000000000000000000000000 DUP2 MSTORE POP PUSH2 0x139 JUMP JUMPDEST STOP JUMPDEST PUSH2 0xCF PUSH2 0x1D2 JUMP JUMPDEST STOP JUMPDEST CALLVALUE DUP1 ISZERO PUSH2 0xDC JUMPI PUSH0 PUSH0 REVERT JUMPDEST POP PUSH2 0xE5 PUSH2 0x1D4 JUMP JUMPDEST PUSH1 0x40 MLOAD PUSH2 0xF2 SWAP2 SWAP1 PUSH2 0x2B2 JUMP JUMPDEST PUSH1 0x40 MLOAD DUP1 SWAP2 SUB SWAP1 RETURN JUMPDEST CALLVALUE DUP1 ISZERO PUSH2 0x106 JUMPI PUSH0 PUSH0 REVERT JUMPDEST POP PUSH2 0x10F PUSH2 0x1DC JUMP JUMPDEST STOP JUMPDEST CALLVALUE DUP1 ISZERO PUSH2 0x11C JUMPI PUSH0 PUSH0 REVERT JUMPDEST POP PUSH2 0x137 PUSH1 0x4 DUP1 CALLDATASIZE SUB DUP2 ADD SWAP1 PUSH2 0x132 SWAP2 SWAP1 PUSH2 0x2F9 JUMP JUMPDEST PUSH2 0x243 JUMP JUMPDEST STOP JUMPDEST PUSH2 0x1CF DUP2 PUSH1 0x40 MLOAD PUSH1 0x24 ADD PUSH2 0x14D SWAP2 SWAP1 PUSH2 0x394 JUMP JUMPDEST PUSH1 0x40 MLOAD PUSH1 0x20 DUP2 DUP4 SUB SUB DUP2 MSTORE SWAP1 PUSH1 0x40 MSTORE PUSH32 0x41304FAC00000000000000000000000000000000000000000000000000000000 PUSH28 0xFFFFFFFFFFFFFFFFFFFFFFFFFFFFFFFFFFFFFFFFFFFFFFFFFFFFFFFF NOT AND PUSH1 0x20 DUP3 ADD DUP1 MLOAD PUSH28 0xFFFFFFFFFFFFFFFFFFFFFFFFFFFFFFFFFFFFFFFFFFFFFFFFFFFFFFFF DUP4 DUP2 DUP4 AND OR DUP4 MSTORE POP POP POP POP PUSH2 0x24C JUMP JUMPDEST POP JUMP JUMPDEST JUMP JUMPDEST PUSH0 PUSH0 SLOAD SWAP1 POP SWAP1 JUMP JUMPDEST PUSH1 0x1 PUSH0 SWAP1 SLOAD SWAP1 PUSH2 0x100 EXP SWAP1 DIV PUSH20 0xFFFFFFFFFFFFFFFFFFFFFFFFFFFFFFFFFFFFFFFF AND PUSH20 0xFFFFFFFFFFFFFFFFFFFFFFFFFFFFFFFFFFFFFFFF AND PUSH2 0x8FC SELFBALANCE SWAP1 DUP2 ISZERO MUL SWAP1 PUSH1 0x40 MLOAD PUSH0 PUSH1 0x40 MLOAD DUP1 DUP4 SUB DUP2 DUP6 DUP9 DUP9 CALL SWAP4 POP POP POP POP ISZERO DUP1 ISZERO PUSH2 0x240 JUMPI RETURNDATASIZE PUSH0 PUSH0 RETURNDATACOPY RETURNDATASIZE PUSH0 REVERT JUMPDEST POP JUMP JUMPDEST DUP1 PUSH0 DUP2 SWAP1 SSTORE POP POP JUMP JUMPDEST PUSH2 0x263 DUP2 PUSH2 0x25B PUSH2 0x266 PUSH2 0x285 JUMP JUMPDEST PUSH4 0xFFFFFFFF AND JUMP JUMPDEST POP JUMP JUMPDEST PUSH0 PUSH11 0x636F6E736F6C652E6C6F67 SWAP1 POP PUSH0 PUSH0 DUP4 MLOAD PUSH1 0x20 DUP6 ADD DUP5 GAS STATICCALL POP POP POP JUMP JUMPDEST PUSH2 0x290 DUP2 SWAP1 POP SWAP2 SWAP1 POP JUMP JUMPDEST PUSH2 0x298 PUSH2 0x3B4 JUMP JUMPDEST JUMP JUMPDEST PUSH0 DUP2 SWAP1 POP SWAP2 SWAP1 POP JUMP JUMPDEST PUSH2 0x2AC DUP2 PUSH2 0x29A JUMP JUMPDEST DUP3 MSTORE POP POP JUMP JUMPDEST PUSH0 PUSH1 0x20 DUP3 ADD SWAP1 POP PUSH2 0x2C5 PUSH0 DUP4 ADD DUP5 PUSH2 0x2A3 JUMP JUMPDEST SWAP3 SWAP2 POP POP JUMP JUMPDEST PUSH0 PUSH0 REVERT JUMPDEST PUSH2 0x2D8 DUP2 PUSH2 0x29A JUMP JUMPDEST DUP2 EQ PUSH2 0x2E2 JUMPI PUSH0 PUSH0 REVERT JUMPDEST POP JUMP JUMPDEST PUSH0 DUP2 CALLDATALOAD SWAP1 POP PUSH2 0x2F3 DUP2 PUSH2 0x2CF JUMP JUMPDEST SWAP3 SWAP2 POP POP JUMP JUMPDEST PUSH0 PUSH1 0x20 DUP3 DUP5 SUB SLT ISZERO PUSH2 0x30E JUMPI PUSH2 0x30D PUSH2 0x2CB JUMP JUMPDEST JUMPDEST PUSH0 PUSH2 0x31B DUP5 DUP3 DUP6 ADD PUSH2 0x2E5 JUMP JUMPDEST SWAP2 POP POP SWAP3 SWAP2 POP POP JUMP JUMPDEST PUSH0 DUP2 MLOAD SWAP1 POP SWAP2 SWAP1 POP JUMP JUMPDEST PUSH0 DUP3 DUP3 MSTORE PUSH1 0x20 DUP3 ADD SWAP1 POP SWAP3 SWAP2 POP POP JUMP JUMPDEST DUP3 DUP2 DUP4 MCOPY PUSH0 DUP4 DUP4 ADD MSTORE POP POP POP JUMP JUMPDEST PUSH0 PUSH1 0x1F NOT PUSH1 0x1F DUP4 ADD AND SWAP1 POP SWAP2 SWAP1 POP JUMP JUMPDEST PUSH0 PUSH2 0x366 DUP3 PUSH2 0x324 JUMP JUMPDEST PUSH2 0x370 DUP2 DUP6 PUSH2 0x32E JUMP JUMPDEST SWAP4 POP PUSH2 0x380 DUP2 DUP6 PUSH1 0x20 DUP7 ADD PUSH2 0x33E JUMP JUMPDEST PUSH2 0x389 DUP2 PUSH2 0x34C JUMP JUMPDEST DUP5 ADD SWAP2 POP POP SWAP3 SWAP2 POP POP JUMP JUMPDEST PUSH0 PUSH1 0x20 DUP3 ADD SWAP1 POP DUP2 DUP2 SUB PUSH0 DUP4 ADD MSTORE PUSH2 0x3AC DUP2 DUP5 PUSH2 0x35C JUMP JUMPDEST SWAP1 POP SWAP3 SWAP2 POP POP JUMP JUMPDEST PUSH32 0x4E487B7100000000000000000000000000000000000000000000000000000000 PUSH0 MSTORE PUSH1 0x51 PUSH1 0x4 MSTORE PUSH1 0x24 PUSH0 REVERT INVALID LOG2 PUSH5 0x6970667358 0x22 SLT KECCAK256 PUSH16 0xE090B14D5A05EF18938FBFC146E0D676 0xD0 SSTORE 0xDC 0xC5 SWAP14 PUSH7 0x22E5CF1B5A7BC 0xCF 0xDA PUSH5 0x736F6C6343 STOP ADDMOD 0x22 STOP CALLER "
		},
		"gasEstimates": {
			"creation": {
				"codeDepositCost": "209400",
				"executionCost": "29518",
				"totalCost": "238918"
			},
			"external": {
				"": "infinite",
				"get_value()": "2431",
				"pay()": "97",
				"set_value(uint256)": "22558",
				"withdraw()": "infinite"
			}
		},
		"methodIdentifiers": {
			"get_value()": "33cf5080",
			"pay()": "1b9265b8",
			"set_value(uint256)": "b0f2b72a",
			"withdraw()": "3ccfd60b"
		}
	},
	"abi": [
		{
			"inputs": [],
			"stateMutability": "nonpayable",
			"type": "constructor"
		},
		{
			"stateMutability": "payable",
			"type": "fallback"
		},
		{
			"inputs": [],
			"name": "get_value",
			"outputs": [
				{
					"internalType": "uint256",
					"name": "",
					"type": "uint256"
				}
			],
			"stateMutability": "view",
			"type": "function"
		},
		{
			"inputs": [],
			"name": "pay",
			"outputs": [],
			"stateMutability": "payable",
			"type": "function"
		},
		{
			"inputs": [
				{
					"internalType": "uint256",
					"name": "value",
					"type": "uint256"
				}
			],
			"name": "set_value",
			"outputs": [],
			"stateMutability": "nonpayable",
			"type": "function"
		},
		{
			"inputs": [],
			"name": "withdraw",
			"outputs": [],
			"stateMutability": "nonpayable",
			"type": "function"
		},
		{
			"stateMutability": "payable",
			"type": "receive"
		}
	]
}