{
	"data": {
		"bytecode": {
			"linkReferences": {},
			"object": "60806040526040518060400160405280601181526020017f48656c6c6f2066726f6d20706172656e740000000000000000000000000000008152506001908161004891906102ed565b50348015610054575f5ffd5b506040518060400160405280601281526020017f48656c6c6f2066726f6d206465726976656400000000000000000000000000008152506001908161009991906102ed565b506103bc565b5f81519050919050565b7f4e487b71000000000000000000000000000000000000000000000000000000005f52604160045260245ffd5b7f4e487b71000000000000000000000000000000000000000000000000000000005f52602260045260245ffd5b5f600282049050600182168061011a57607f821691505b60208210810361012d5761012c6100d6565b5b50919050565b5f819050815f5260205f209050919050565b5f6020601f8301049050919050565b5f82821b905092915050565b5f6008830261018f7fffffffffffffffffffffffffffffffffffffffffffffffffffffffffffffffff82610154565b6101998683610154565b95508019841693508086168417925050509392505050565b5f819050919050565b5f819050919050565b5f6101dd6101d86101d3846101b1565b6101ba565b6101b1565b9050919050565b5f819050919050565b6101f6836101c3565b61020a610202826101e4565b848454610160565b825550505050565b5f5f905090565b610221610212565b61022c8184846101ed565b505050565b5f5b82811015610252576102475f828401610219565b600181019050610233565b505050565b601f8211156102a557828211156102a45761027181610133565b61027a83610145565b61028385610145565b6020861015610290575f90505b80830161029f82840382610231565b505050505b5b505050565b5f82821c905092915050565b5f6102c55f19846008026102aa565b1980831691505092915050565b5f6102dd83836102b6565b9150826002028217905092915050565b6102f68261009f565b67ffffffffffffffff81111561030f5761030e6100a9565b5b6103198254610103565b610324828285610257565b5f60209050601f831160018114610355575f8415610343578287015190505b61034d85826102d2565b8655506103b4565b601f19841661036386610133565b5f5b8281101561038a57848901518255600182019150602085019450602081019050610365565b868310156103a757848901516103a3601f8916826102b6565b8355505b6001600288020188555050505b505050505050565b61032b806103c95f395ff3fe608060405234801561000f575f5ffd5b5060043610610034575f3560e01c806332af2edb1461003857806386b301ad14610056575b5f5ffd5b610040610075565b60405161004d9190610243565b60405180910390f35b61005e610105565b60405161006c929190610263565b60405180910390f35b606060018054610084906102c5565b80601f01602080910402602001604051908101604052809291908181526020018280546100b0906102c5565b80156100fb5780601f106100d2576101008083540402835291602001916100fb565b820191905f5260205f20905b8154815290600101906020018083116100de57829003601f168201915b5050505050905090565b60608060016040518060400160405280600781526020017f44657269766564000000000000000000000000000000000000000000000000008152509080805461014d906102c5565b80601f0160208091040260200160405190810160405280929190818152602001828054610179906102c5565b80156101c45780601f1061019b576101008083540402835291602001916101c4565b820191905f5260205f20905b8154815290600101906020018083116101a757829003601f168201915b50505050509050915091509091565b5f81519050919050565b5f82825260208201905092915050565b8281835e5f83830152505050565b5f601f19601f8301169050919050565b5f610215826101d3565b61021f81856101dd565b935061022f8185602086016101ed565b610238816101fb565b840191505092915050565b5f6020820190508181035f83015261025b818461020b565b905092915050565b5f6040820190508181035f83015261027b818561020b565b9050818103602083015261028f818461020b565b90509392505050565b7f4e487b71000000000000000000000000000000000000000000000000000000005f52602260045260245ffd5b5f60028204905060018216806102dc57607f821691505b6020821081036102ef576102ee610298565b5b5091905056fea2646970667358221220dd5418a11f2c123bd1afe1aa88cfc1ec4a0cb98675136d75d463ad100afefa5664736f6c63430008220033",
			"opcodes": "PUSH1 0x80 PUSH1 0x40 MSTORE PUSH1 0x40 MLOAD DUP1 PUSH1 0x40 ADD PUSH1 0x40 MSTORE DUP1 PUSH1 0x11 DUP2 MSTORE PUSH1 0x20 ADD PUSH32 0x48656C6C6F2066726F6D20706172656E74000000000000000000000000000000 DUP2 MSTORE POP PUSH1 0x1 SWAP1 DUP2 PUSH2 0x48 SWAP2 SWAP1 PUSH2 0x2ED JUMP JUMPDEST POP CALLVALUE DUP1 ISZERO PUSH2 0x54 JUMPI PUSH0 PUSH0 REVERT JUMPDEST POP PUSH1 0x40 MLOAD DUP1 PUSH1 0x40 ADD PUSH1 0x40 MSTORE DUP1 PUSH1 0x12 DUP2 MSTORE PUSH1 0x20 ADD PUSH32 0x48656C6C6F2066726F6D20646572697665640000000000000000000000000000 DUP2 MSTORE POP PUSH1 0x1 SWAP1 DUP2 PUSH2 0x99 SWAP2 SWAP1 PUSH2 0x2ED JUMP JUMPDEST POP PUSH2 0x3BC JUMP JUMPDEST PUSH0 DUP2 MLOAD SWAP1 POP SWAP2 SWAP1 POP JUMP JUMPDEST PUSH32 0x4E487B7100000000000000000000000000000000000000000000000000000000 PUSH0 MSTORE PUSH1 0x41 PUSH1 0x4 MSTORE PUSH1 0x24 PUSH0 REVERT JUMPDEST PUSH32 0x4E487B7100000000000000000000000000000000000000000000000000000000 PUSH0 MSTORE PUSH1 0x22 PUSH1 0x4 MSTORE PUSH1 0x24 PUSH0 REVERT JUMPDEST PUSH0 PUSH1 0x2 DUP3 DIV SWAP1 POP PUSH1 0x1 DUP3 AND DUP1 PUSH2 0x11A JUMPI PUSH1 0x7F DUP3 AND SWAP2 POP JUMPDEST PUSH1 0x20 DUP3 LT DUP2 SUB PUSH2 0x12D JUMPI PUSH2 0x12C PUSH2 0xD6 JUMP JUMPDEST JUMPDEST POP SWAP2 SWAP1 POP JUMP JUMPDEST PUSH0 DUP2 SWAP1 POP DUP2 PUSH0 MSTORE PUSH1 0x20 PUSH0 KECCAK256 SWAP1 POP SWAP2 SWAP1 POP JUMP JUMPDEST PUSH0 PUSH1 0x20 PUSH1 0x1F DUP4 ADD DIV SWAP1 POP SWAP2 SWAP1 POP JUMP JUMPDEST PUSH0 DUP3 DUP3 SHL SWAP1 POP SWAP3 SWAP2 POP POP JUMP JUMPDEST PUSH0 PUSH1 0x8 DUP4 MUL PUSH2 0x18F PUSH32 0xFFFFFFFFFFFFFFFFFFFFFFFFFFFFFFFFFFFFFFFFFFFFFFFFFFFFFFFFFFFFFFFF DUP3 PUSH2 0x154 JUMP JUMPDEST PUSH2 0x199 DUP7 DUP4 PUSH2 0x154 JUMP JUMPDEST SWAP6 POP DUP1 NOT DUP5 AND SWAP4 POP DUP1 DUP7 AND DUP5 OR SWAP3 POP POP POP SWAP4 SWAP3 POP POP POP JUMP JUMPDEST PUSH0 DUP2 SWAP1 POP SWAP2 SWAP1 POP JUMP JUMPDEST PUSH0 DUP2 SWAP1 POP SWAP2 SWAP1 POP JUMP JUMPDEST PUSH0 PUSH2 0x1DD PUSH2 0x1D8 PUSH2 0x1D3 DUP5 PUSH2 0x1B1 JUMP JUMPDEST PUSH2 0x1BA JUMP JUMPDEST PUSH2 0x1B1 JUMP JUMPDEST SWAP1 POP SWAP2 SWAP1 POP JUMP JUMPDEST PUSH0 DUP2 SWAP1 POP SWAP2 SWAP1 POP JUMP JUMPDEST PUSH2 0x1F6 DUP4 PUSH2 0x1C3 JUMP JUMPDEST PUSH2 0x20A PUSH2 0x202 DUP3 PUSH2 0x1E4 JUMP JUMPDEST DUP5 DUP5 SLOAD PUSH2 0x160 JUMP JUMPDEST DUP3 SSTORE POP POP POP POP JUMP JUMPDEST PUSH0 PUSH0 SWAP1 POP SWAP1 JUMP JUMPDEST PUSH2 0x221 PUSH2 0x212 JUMP JUMPDEST PUSH2 0x22C DUP2 DUP5 DUP5 PUSH2 0x1ED JUMP JUMPDEST POP POP POP JUMP JUMPDEST PUSH0 JUMPDEST DUP3 DUP2 LT ISZERO PUSH2 0x252 JUMPI PUSH2 0x247 PUSH0 DUP3 DUP5 ADD PUSH2 0x219 JUMP JUMPDEST PUSH1 0x1 DUP2 ADD SWAP1 POP PUSH2 0x233 JUMP JUMPDEST POP POP POP JUMP JUMPDEST PUSH1 0x1F DUP3 GT ISZERO PUSH2 0x2A5 JUMPI DUP3 DUP3 GT ISZERO PUSH2 0x2A4 JUMPI PUSH2 0x271 DUP2 PUSH2 0x133 JUMP JUMPDEST PUSH2 0x27A DUP4 PUSH2 0x145 JUMP JUMPDEST PUSH2 0x283 DUP6 PUSH2 0x145 JUMP JUMPDEST PUSH1 0x20 DUP7 LT ISZERO PUSH2 0x290 JUMPI PUSH0 SWAP1 POP JUMPDEST DUP1 DUP4 ADD PUSH2 0x29F DUP3 DUP5 SUB DUP3 PUSH2 0x231 JUMP JUMPDEST POP POP POP POP JUMPDEST JUMPDEST POP POP POP JUMP JUMPDEST PUSH0 DUP3 DUP3 SHR SWAP1 POP SWAP3 SWAP2 POP POP JUMP JUMPDEST PUSH0 PUSH2 0x2C5 PUSH0 NOT DUP5 PUSH1 0x8 MUL PUSH2 0x2AA JUMP JUMPDEST NOT DUP1 DUP4 AND SWAP2 POP POP SWAP3 SWAP2 POP POP JUMP JUMPDEST PUSH0 PUSH2 0x2DD DUP4 DUP4 PUSH2 0x2B6 JUMP JUMPDEST SWAP2 POP DUP3 PUSH1 0x2 MUL DUP3 OR SWAP1 POP SWAP3 SWAP2 POP POP JUMP JUMPDEST PUSH2 0x2F6 DUP3 PUSH2 0x9F JUMP JUMPDEST PUSH8 0xFFFFFFFFFFFFFFFF DUP2 GT ISZERO PUSH2 0x30F JUMPI PUSH2 0x30E PUSH2 0xA9 JUMP JUMPDEST JUMPDEST PUSH2 0x319 DUP3 SLOAD PUSH2 0x103 JUMP JUMPDEST PUSH2 0x324 DUP3 DUP3 DUP6 PUSH2 0x257 JUMP JUMPDEST PUSH0 PUSH1 0x20 SWAP1 POP PUSH1 0x1F DUP4 GT PUSH1 0x1 DUP2 EQ PUSH2 0x355 JUMPI PUSH0 DUP5 ISZERO PUSH2 0x343 JUMPI DUP3 DUP8 ADD MLOAD SWAP1 POP JUMPDEST PUSH2 0x34D DUP6 DUP3 PUSH2 0x2D2 JUMP JUMPDEST DUP7 SSTORE POP PUSH2 0x3B4 JUMP JUMPDEST PUSH1 0x1F NOT DUP5 AND PUSH2 0x363 DUP7 PUSH2 0x133 JUMP JUMPDEST PUSH0 JUMPDEST DUP3 DUP2 LT ISZERO PUSH2 0x38A JUMPI DUP5 DUP10 ADD MLOAD DUP3 SSTORE PUSH1 0x1 DUP3 ADD SWAP2 POP PUSH1 0x20 DUP6 ADD SWAP5 POP PUSH1 0x20 DUP2 ADD SWAP1 POP PUSH2 0x365 JUMP JUMPDEST DUP7 DUP4 LT ISZERO PUSH2 0x3A7 JUMPI DUP5 DUP10 ADD MLOAD PUSH2 0x3A3 PUSH1 0x1F DUP10 AND DUP3 PUSH2 0x2B6 JUMP JUMPDEST DUP4 SSTORE POP JUMPDEST PUSH1 0x1 PUSH1 0x2 DUP9 MUL ADD DUP9 SSTORE POP POP POP JUMPDEST POP POP POP POP POP POP JUMP JUMPDEST PUSH2 0x32B DUP1 PUSH2 0x3C9 PUSH0 CODECOPY PUSH0 RETURN INVALID PUSH1 0x80 PUSH1 0x40 MSTORE CALLVALUE DUP1 ISZERO PUSH2 0xF JUMPI PUSH0 PUSH0 REVERT JUMPDEST POP PUSH1 0x4 CALLDATASIZE LT PUSH2 0x34 JUMPI PUSH0 CALLDATALOAD PUSH1 0xE0 SHR DUP1 PUSH4 0x32AF2EDB EQ PUSH2 0x38 JUMPI DUP1 PUSH4 0x86B301AD EQ PUSH2 0x56 JUMPI JUMPDEST PUSH0 PUSH0 REVERT JUMPDEST PUSH2 0x40 PUSH2 0x75 JUMP JUMPDEST PUSH1 0x40 MLOAD PUSH2 0x4D SWAP2 SWAP1 PUSH2 0x243 JUMP JUMPDEST PUSH1 0x40 MLOAD DUP1 SWAP2 SUB SWAP1 RETURN JUMPDEST PUSH2 0x5E PUSH2 0x105 JUMP JUMPDEST PUSH1 0x40 MLOAD PUSH2 0x6C SWAP3 SWAP2 SWAP1 PUSH2 0x263 JUMP JUMPDEST PUSH1 0x40 MLOAD DUP1 SWAP2 SUB SWAP1 RETURN JUMPDEST PUSH1 0x60 PUSH1 0x1 DUP1 SLOAD PUSH2 0x84 SWAP1 PUSH2 0x2C5 JUMP JUMPDEST DUP1 PUSH1 0x1F ADD PUSH1 0x20 DUP1 SWAP2 DIV MUL PUSH1 0x20 ADD PUSH1 0x40 MLOAD SWAP1 DUP2 ADD PUSH1 0x40 MSTORE DUP1 SWAP3 SWAP2 SWAP1 DUP2 DUP2 MSTORE PUSH1 0x20 ADD DUP3 DUP1 SLOAD PUSH2 0xB0 SWAP1 PUSH2 0x2C5 JUMP JUMPDEST DUP1 ISZERO PUSH2 0xFB JUMPI DUP1 PUSH1 0x1F LT PUSH2 0xD2 JUMPI PUSH2 0x100 DUP1 DUP4 SLOAD DIV MUL DUP4 MSTORE SWAP2 PUSH1 0x20 ADD SWAP2 PUSH2 0xFB JUMP JUMPDEST DUP3 ADD SWAP2 SWAP1 PUSH0 MSTORE PUSH1 0x20 PUSH0 KECCAK256 SWAP1 JUMPDEST DUP2 SLOAD DUP2 MSTORE SWAP1 PUSH1 0x1 ADD SWAP1 PUSH1 0x20 ADD DUP1 DUP4 GT PUSH2 0xDE JUMPI DUP3 SWAP1 SUB PUSH1 0x1F AND DUP3 ADD SWAP2 JUMPDEST POP POP POP POP POP SWAP1 POP SWAP1 JUMP JUMPDEST PUSH1 0x60 DUP1 PUSH1 0x1 PUSH1 0x40 MLOAD DUP1 PUSH1 0x40 ADD PUSH1 0x40 MSTORE DUP1 PUSH1 0x7 DUP2 MSTORE PUSH1 0x20 ADD PUSH32 0x4465726976656400000000000000000000000000000000000000000000000000 DUP2 MSTORE POP SWAP1 DUP1 DUP1 SLOAD PUSH2 0x14D SWAP1 PUSH2 0x2C5 JUMP JUMPDEST DUP1 PUSH1 0x1F ADD PUSH1 0x20 DUP1 SWAP2 DIV MUL PUSH1 0x20 ADD PUSH1 0x40 MLOAD SWAP1 DUP2 ADD PUSH1 0x40 MSTORE DUP1 SWAP3 SWAP2 SWAP1 DUP2 DUP2 MSTORE PUSH1 0x20 ADD DUP3 DUP1 SLOAD PUSH2 0x179 SWAP1 PUSH2 0x2C5 JUMP JUMPDEST DUP1 ISZERO PUSH2 0x1C4 JUMPI DUP1 PUSH1 0x1F LT PUSH2 0x19B JUMPI PUSH2 0x100 DUP1 DUP4 SLOAD DIV MUL DUP4 MSTORE SWAP2 PUSH1 0x20 ADD SWAP2 PUSH2 0x1C4 JUMP JUMPDEST DUP3 ADD SWAP2 SWAP1 PUSH0 MSTORE PUSH1 0x20 PUSH0 KECCAK256 SWAP1 JUMPDEST DUP2 SLOAD DUP2 MSTORE SWAP1 PUSH1 0x1 ADD SWAP1 PUSH1 0x20 ADD DUP1 DUP4 GT PUSH2 0x1A7 JUMPI DUP3 SWAP1 SUB PUSH1 0x1F AND DUP3 ADD SWAP2 JUMPDEST POP POP POP POP POP SWAP1 POP SWAP2 POP SWAP2 POP SWAP1 SWAP2 JUMP JUMPDEST PUSH0 DUP2 MLOAD SWAP1 POP SWAP2 SWAP1 POP JUMP JUMPDEST PUSH0 DUP3 DUP3 MSTORE PUSH1 0x20 DUP3 ADD SWAP1 POP SWAP3 SWAP2 POP POP JUMP JUMPDEST DUP3 DUP2 DUP4 MCOPY PUSH0 DUP4 DUP4 ADD MSTORE POP POP POP JUMP JUMPDEST PUSH0 PUSH1 0x1F NOT PUSH1 0x1F DUP4 ADD AND SWAP1 POP SWAP2 SWAP1 POP JUMP JUMPDEST PUSH0 PUSH2 0x215 DUP3 PUSH2 0x1D3 JUMP JUMPDEST PUSH2 0x21F DUP2 DUP6 PUSH2 0x1DD JUMP JUMPDEST SWAP4 POP PUSH2 0x22F DUP2 DUP6 PUSH1 0x20 DUP7 ADD PUSH2 0x1ED JUMP JUMPDEST PUSH2 0x238 DUP2 PUSH2 0x1FB JUMP JUMPDEST DUP5 ADD SWAP2 POP POP SWAP3 SWAP2 POP POP JUMP JUMPDEST PUSH0 PUSH1 0x20 DUP3 ADD SWAP1 POP DUP2 DUP2 SUB PUSH0 DUP4 ADD MSTORE PUSH2 0x25B DUP2 DUP5 PUSH2 0x20B JUMP JUMPDEST SWAP1 POP SWAP3 SWAP2 POP POP JUMP JUMPDEST PUSH0 PUSH1 0x40 DUP3 ADD SWAP1 POP DUP2 DUP2 SUB PUSH0 DUP4 ADD MSTORE PUSH2 0x27B DUP2 DUP6 PUSH2 0x20B JUMP JUMPDEST SWAP1 POP DUP2 DUP2 SUB PUSH1 0x20 DUP4 ADD MSTORE PUSH2 0x28F DUP2 DUP5 PUSH2 0x20B JUMP JUMPDEST SWAP1 POP SWAP4 SWAP3 POP POP POP JUMP JUMPDEST PUSH32 0x4E487B7100000000000000000000000000000000000000000000000000000000 PUSH0 MSTORE PUSH1 0x22 PUSH1 0x4 MSTORE PUSH1 0x24 PUSH0 REVERT JUMPDEST PUSH0 PUSH1 0x2 DUP3 DIV SWAP1 POP PUSH1 0x1 DUP3 AND DUP1 PUSH2 0x2DC JUMPI PUSH1 0x7F DUP3 AND SWAP2 POP JUMPDEST PUSH1 0x20 DUP3 LT DUP2 SUB PUSH2 0x2EF JUMPI PUSH2 0x2EE PUSH2 0x298 JUMP JUMPDEST JUMPDEST POP SWAP2 SWAP1 POP JUMP INVALID LOG2 PUSH5 0x6970667358 0x22 SLT KECCAK256 0xDD SLOAD XOR LOG1 0x1F 0x2C SLT EXTCODESIZE DATALOADN 0xAFE1 0xAA DUP9 0xCF 0xC1 EOFCREATE 0x4A 0xC 0xB9 DUP7 PUSH22 0x136D75D463AD100AFEFA5664736F6C63430008220033 "
		},
		"gasEstimates": {
			"creation": {
				"codeDepositCost": "162200",
				"executionCost": "infinite",
				"totalCost": "infinite"
			},
			"external": {
				"get_message()": "infinite",
				"get_state()": "infinite"
			}
		},
		"methodIdentifiers": {
			"get_message()": "32af2edb",
			"get_state()": "86b301ad"
		}
	},
	"abi": [
		{
			"inputs": [],
			"stateMutability": "nonpayable",
			"type": "constructor"
		},
		{
			"inputs": [],
			"name": "get_message",
			"outputs": [
				{
					"internalType": "string",
					"name": "",
					"type": "string"
				}
			],
			"stateMutability": "view",
			"type": "function"
		},
		{
			"inputs": [],
			"name": "get_state",
			"outputs": [
				{
					"internalType": "string",
					"name": "",
					"type": "string"
				},
				{
					"internalType": "string",
					"name": "",
					"type": "string"
				}
			],
			"stateMutability": "view",
			"type": "function"
		}
	]
}