{
	"data": {
		"bytecode": {
			"linkReferences": {},
			"object": "60806040525f5f5f6101000a81548160ff0219169083151502179055505f60015560016002555f6003553480156033575f5ffd5b50610769806100415f395ff3fe608060405234801561000f575f5ffd5b506004361061004a575f3560e01c80632f9a57e61461004e5780633d18b912146100585780634e69d5601461006257806363ac64431461006c575b5f5ffd5b610056610076565b005b6100606100fe565b005b61006a61014c565b005b61007461025d565b005b5f5f9054906101000a900460ff16156100bd575f5f5f6101000a81548160ff02191690831515021790555060015f8154809291906100b390610506565b91905055506100fc565b6100fb6040518060400160405280601c81526020017f596f752063616e277420636f6d706c65746520746865207175657374000000008152506102b1565b5b565b600154600161010d919061054d565b60035f82825461011d919061058e565b925050819055506001546001610133919061054d565b60025f828254610143919061058e565b92505081905550565b6101986040518060400160405280600f81526020017f497351756573744163746976653a2000000000000000000000000000000000008152505f5f9054906101000a900460ff1661034a565b6101d96040518060400160405280601181526020017f436f6d706c657465645175657374733a200000000000000000000000000000008152506001546103e6565b61021a6040518060400160405280600581526020017f6c766c3a200000000000000000000000000000000000000000000000000000008152506002546103e6565b61025b6040518060400160405280600981526020017f526577617264733a2000000000000000000000000000000000000000000000008152506003546103e6565b565b5f5f9054906101000a900460ff1661028d5760015f5f6101000a81548160ff0219169083151502179055506102af565b6102ae604051806060016040528060308152602001610704603091396102b1565b5b565b610347816040516024016102c59190610631565b6040516020818303038152906040527f41304fac000000000000000000000000000000000000000000000000000000007bffffffffffffffffffffffffffffffffffffffffffffffffffffffff19166020820180517bffffffffffffffffffffffffffffffffffffffffffffffffffffffff8381831617835250505050610482565b50565b6103e2828260405160240161036092919061066b565b6040516020818303038152906040527fc3b55635000000000000000000000000000000000000000000000000000000007bffffffffffffffffffffffffffffffffffffffffffffffffffffffff19166020820180517bffffffffffffffffffffffffffffffffffffffffffffffffffffffff8381831617835250505050610482565b5050565b61047e82826040516024016103fc9291906106a8565b6040516020818303038152906040527fb60e72cc000000000000000000000000000000000000000000000000000000007bffffffffffffffffffffffffffffffffffffffffffffffffffffffff19166020820180517bffffffffffffffffffffffffffffffffffffffffffffffffffffffff8381831617835250505050610482565b5050565b6104998161049161049c6104bb565b63ffffffff16565b50565b5f6a636f6e736f6c652e6c6f6790505f5f835160208501845afa505050565b6104c6819050919050565b6104ce6106d6565b565b7f4e487b71000000000000000000000000000000000000000000000000000000005f52601160045260245ffd5b5f819050919050565b5f610510826104fd565b91507fffffffffffffffffffffffffffffffffffffffffffffffffffffffffffffffff8203610542576105416104d0565b5b600182019050919050565b5f610557826104fd565b9150610562836104fd565b9250828202610570816104fd565b91508282048414831517610587576105866104d0565b5b5092915050565b5f610598826104fd565b91506105a3836104fd565b92508282019050808211156105bb576105ba6104d0565b5b92915050565b5f81519050919050565b5f82825260208201905092915050565b8281835e5f83830152505050565b5f601f19601f8301169050919050565b5f610603826105c1565b61060d81856105cb565b935061061d8185602086016105db565b610626816105e9565b840191505092915050565b5f6020820190508181035f83015261064981846105f9565b905092915050565b5f8115159050919050565b61066581610651565b82525050565b5f6040820190508181035f83015261068381856105f9565b9050610692602083018461065c565b9392505050565b6106a2816104fd565b82525050565b5f6040820190508181035f8301526106c081856105f9565b90506106cf6020830184610699565b9392505050565b7f4e487b71000000000000000000000000000000000000000000000000000000005f52605160045260245ffdfe596f752063616e2774207069636b206d6f72652071756573747320796f7520616c6c72656164792068617665206f6e65a26469706673582212201eb56239637b363fd5dae0a4ff02d20a4e8497f061e0ce1482a82e422577de7964736f6c63430008220033",
			"opcodes": "PUSH1 0x80 PUSH1 0x40 MSTORE PUSH0 PUSH0 PUSH0 PUSH2 0x100 EXP DUP2 SLOAD DUP2 PUSH1 0xFF MUL NOT AND SWAP1 DUP4 ISZERO ISZERO MUL OR SWAP1 SSTORE POP PUSH0 PUSH1 0x1 SSTORE PUSH1 0x1 PUSH1 0x2 SSTORE PUSH0 PUSH1 0x3 SSTORE CALLVALUE DUP1 ISZERO PUSH1 0x33 JUMPI PUSH0 PUSH0 REVERT JUMPDEST POP PUSH2 0x769 DUP1 PUSH2 0x41 PUSH0 CODECOPY PUSH0 RETURN INVALID PUSH1 0x80 PUSH1 0x40 MSTORE CALLVALUE DUP1 ISZERO PUSH2 0xF JUMPI PUSH0 PUSH0 REVERT JUMPDEST POP PUSH1 0x4 CALLDATASIZE LT PUSH2 0x4A JUMPI PUSH0 CALLDATALOAD PUSH1 0xE0 SHR DUP1 PUSH4 0x2F9A57E6 EQ PUSH2 0x4E JUMPI DUP1 PUSH4 0x3D18B912 EQ PUSH2 0x58 JUMPI DUP1 PUSH4 0x4E69D560 EQ PUSH2 0x62 JUMPI DUP1 PUSH4 0x63AC6443 EQ PUSH2 0x6C JUMPI JUMPDEST PUSH0 PUSH0 REVERT JUMPDEST PUSH2 0x56 PUSH2 0x76 JUMP JUMPDEST STOP JUMPDEST PUSH2 0x60 PUSH2 0xFE JUMP JUMPDEST STOP JUMPDEST PUSH2 0x6A PUSH2 0x14C JUMP JUMPDEST STOP JUMPDEST PUSH2 0x74 PUSH2 0x25D JUMP JUMPDEST STOP JUMPDEST PUSH0 PUSH0 SWAP1 SLOAD SWAP1 PUSH2 0x100 EXP SWAP1 DIV PUSH1 0xFF AND ISZERO PUSH2 0xBD JUMPI PUSH0 PUSH0 PUSH0 PUSH2 0x100 EXP DUP2 SLOAD DUP2 PUSH1 0xFF MUL NOT AND SWAP1 DUP4 ISZERO ISZERO MUL OR SWAP1 SSTORE POP PUSH1 0x1 PUSH0 DUP2 SLOAD DUP1 SWAP3 SWAP2 SWAP1 PUSH2 0xB3 SWAP1 PUSH2 0x506 JUMP JUMPDEST SWAP2 SWAP1 POP SSTORE POP PUSH2 0xFC JUMP JUMPDEST PUSH2 0xFB PUSH1 0x40 MLOAD DUP1 PUSH1 0x40 ADD PUSH1 0x40 MSTORE DUP1 PUSH1 0x1C DUP2 MSTORE PUSH1 0x20 ADD PUSH32 0x596F752063616E277420636F6D706C6574652074686520717565737400000000 DUP2 MSTORE POP PUSH2 0x2B1 JUMP JUMPDEST JUMPDEST JUMP JUMPDEST PUSH1 0x1 SLOAD PUSH1 0x1 PUSH2 0x10D SWAP2 SWAP1 PUSH2 0x54D JUMP JUMPDEST PUSH1 0x3 PUSH0 DUP3 DUP3 SLOAD PUSH2 0x11D SWAP2 SWAP1 PUSH2 0x58E JUMP JUMPDEST SWAP3 POP POP DUP2 SWAP1 SSTORE POP PUSH1 0x1 SLOAD PUSH1 0x1 PUSH2 0x133 SWAP2 SWAP1 PUSH2 0x54D JUMP JUMPDEST PUSH1 0x2 PUSH0 DUP3 DUP3 SLOAD PUSH2 0x143 SWAP2 SWAP1 PUSH2 0x58E JUMP JUMPDEST SWAP3 POP POP DUP2 SWAP1 SSTORE POP JUMP JUMPDEST PUSH2 0x198 PUSH1 0x40 MLOAD DUP1 PUSH1 0x40 ADD PUSH1 0x40 MSTORE DUP1 PUSH1 0xF DUP2 MSTORE PUSH1 0x20 ADD PUSH32 0x497351756573744163746976653A200000000000000000000000000000000000 DUP2 MSTORE POP PUSH0 PUSH0 SWAP1 SLOAD SWAP1 PUSH2 0x100 EXP SWAP1 DIV PUSH1 0xFF AND PUSH2 0x34A JUMP JUMPDEST PUSH2 0x1D9 PUSH1 0x40 MLOAD DUP1 PUSH1 0x40 ADD PUSH1 0x40 MSTORE DUP1 PUSH1 0x11 DUP2 MSTORE PUSH1 0x20 ADD PUSH32 0x436F6D706C657465645175657374733A20000000000000000000000000000000 DUP2 MSTORE POP PUSH1 0x1 SLOAD PUSH2 0x3E6 JUMP JUMPDEST PUSH2 0x21A PUSH1 0x40 MLOAD DUP1 PUSH1 0x40 ADD PUSH1 0x40 MSTORE DUP1 PUSH1 0x5 DUP2 MSTORE PUSH1 0x20 ADD PUSH32 0x6C766C3A20000000000000000000000000000000000000000000000000000000 DUP2 MSTORE POP PUSH1 0x2 SLOAD PUSH2 0x3E6 JUMP JUMPDEST PUSH2 0x25B PUSH1 0x40 MLOAD DUP1 PUSH1 0x40 ADD PUSH1 0x40 MSTORE DUP1 PUSH1 0x9 DUP2 MSTORE PUSH1 0x20 ADD PUSH32 0x526577617264733A200000000000000000000000000000000000000000000000 DUP2 MSTORE POP PUSH1 0x3 SLOAD PUSH2 0x3E6 JUMP JUMPDEST JUMP JUMPDEST PUSH0 PUSH0 SWAP1 SLOAD SWAP1 PUSH2 0x100 EXP SWAP1 DIV PUSH1 0xFF AND PUSH2 0x28D JUMPI PUSH1 0x1 PUSH0 PUSH0 PUSH2 0x100 EXP DUP2 SLOAD DUP2 PUSH1 0xFF MUL NOT AND SWAP1 DUP4 ISZERO ISZERO MUL OR SWAP1 SSTORE POP PUSH2 0x2AF JUMP JUMPDEST PUSH2 0x2AE PUSH1 0x40 MLOAD DUP1 PUSH1 0x60 ADD PUSH1 0x40 MSTORE DUP1 PUSH1 0x30 DUP2 MSTORE PUSH1 0x20 ADD PUSH2 0x704 PUSH1 0x30 SWAP2 CODECOPY PUSH2 0x2B1 JUMP JUMPDEST JUMPDEST JUMP JUMPDEST PUSH2 0x347 DUP2 PUSH1 0x40 MLOAD PUSH1 0x24 ADD PUSH2 0x2C5 SWAP2 SWAP1 PUSH2 0x631 JUMP JUMPDEST PUSH1 0x40 MLOAD PUSH1 0x20 DUP2 DUP4 SUB SUB DUP2 MSTORE SWAP1 PUSH1 0x40 MSTORE PUSH32 0x41304FAC00000000000000000000000000000000000000000000000000000000 PUSH28 0xFFFFFFFFFFFFFFFFFFFFFFFFFFFFFFFFFFFFFFFFFFFFFFFFFFFFFFFF NOT AND PUSH1 0x20 DUP3 ADD DUP1 MLOAD PUSH28 0xFFFFFFFFFFFFFFFFFFFFFFFFFFFFFFFFFFFFFFFFFFFFFFFFFFFFFFFF DUP4 DUP2 DUP4 AND OR DUP4 MSTORE POP POP POP POP PUSH2 0x482 JUMP JUMPDEST POP JUMP JUMPDEST PUSH2 0x3E2 DUP3 DUP3 PUSH1 0x40 MLOAD PUSH1 0x24 ADD PUSH2 0x360 SWAP3 SWAP2 SWAP1 PUSH2 0x66B JUMP JUMPDEST PUSH1 0x40 MLOAD PUSH1 0x20 DUP2 DUP4 SUB SUB DUP2 MSTORE SWAP1 PUSH1 0x40 MSTORE PUSH32 0xC3B5563500000000000000000000000000000000000000000000000000000000 PUSH28 0xFFFFFFFFFFFFFFFFFFFFFFFFFFFFFFFFFFFFFFFFFFFFFFFFFFFFFFFF NOT AND PUSH1 0x20 DUP3 ADD DUP1 MLOAD PUSH28 0xFFFFFFFFFFFFFFFFFFFFFFFFFFFFFFFFFFFFFFFFFFFFFFFFFFFFFFFF DUP4 DUP2 DUP4 AND OR DUP4 MSTORE POP POP POP POP PUSH2 0x482 JUMP JUMPDEST POP POP JUMP JUMPDEST PUSH2 0x47E DUP3 DUP3 PUSH1 0x40 MLOAD PUSH1 0x24 ADD PUSH2 0x3FC SWAP3 SWAP2 SWAP1 PUSH2 0x6A8 JUMP JUMPDEST PUSH1 0x40 MLOAD PUSH1 0x20 DUP2 DUP4 SUB SUB DUP2 MSTORE SWAP1 PUSH1 0x40 MSTORE PUSH32 0xB60E72CC00000000000000000000000000000000000000000000000000000000 PUSH28 0xFFFFFFFFFFFFFFFFFFFFFFFFFFFFFFFFFFFFFFFFFFFFFFFFFFFFFFFF NOT AND PUSH1 0x20 DUP3 ADD DUP1 MLOAD PUSH28 0xFFFFFFFFFFFFFFFFFFFFFFFFFFFFFFFFFFFFFFFFFFFFFFFFFFFFFFFF DUP4 DUP2 DUP4 AND OR DUP4 MSTORE POP POP POP POP PUSH2 0x482 JUMP JUMPDEST POP POP JUMP JUMPDEST PUSH2 0x499 DUP2 PUSH2 0x491 PUSH2 0x49C PUSH2 0x4BB JUMP JUMPDEST PUSH4 0xFFFFFFFF AND JUMP JUMPDEST POP JUMP JUMPDEST PUSH0 PUSH11 0x636F6E736F6C652E6C6F67 SWAP1 POP PUSH0 PUSH0 DUP4 MLOAD PUSH1 0x20 DUP6 ADD DUP5 GAS STATICCALL POP POP POP JUMP JUMPDEST PUSH2 0x4C6 DUP2 SWAP1 POP SWAP2 SWAP1 POP JUMP JUMPDEST PUSH2 0x4CE PUSH2 0x6D6 JUMP JUMPDEST JUMP JUMPDEST PUSH32 0x4E487B7100000000000000000000000000000000000000000000000000000000 PUSH0 MSTORE PUSH1 0x11 PUSH1 0x4 MSTORE PUSH1 0x24 PUSH0 REVERT JUMPDEST PUSH0 DUP2 SWAP1 POP SWAP2 SWAP1 POP JUMP JUMPDEST PUSH0 PUSH2 0x510 DUP3 PUSH2 0x4FD JUMP JUMPDEST SWAP2 POP PUSH32 0xFFFFFFFFFFFFFFFFFFFFFFFFFFFFFFFFFFFFFFFFFFFFFFFFFFFFFFFFFFFFFFFF DUP3 SUB PUSH2 0x542 JUMPI PUSH2 0x541 PUSH2 0x4D0 JUMP JUMPDEST JUMPDEST PUSH1 0x1 DUP3 ADD SWAP1 POP SWAP2 SWAP1 POP JUMP JUMPDEST PUSH0 PUSH2 0x557 DUP3 PUSH2 0x4FD JUMP JUMPDEST SWAP2 POP PUSH2 0x562 DUP4 PUSH2 0x4FD JUMP JUMPDEST SWAP3 POP DUP3 DUP3 MUL PUSH2 0x570 DUP2 PUSH2 0x4FD JUMP JUMPDEST SWAP2 POP DUP3 DUP3 DIV DUP5 EQ DUP4 ISZERO OR PUSH2 0x587 JUMPI PUSH2 0x586 PUSH2 0x4D0 JUMP JUMPDEST JUMPDEST POP SWAP3 SWAP2 POP POP JUMP JUMPDEST PUSH0 PUSH2 0x598 DUP3 PUSH2 0x4FD JUMP JUMPDEST SWAP2 POP PUSH2 0x5A3 DUP4 PUSH2 0x4FD JUMP JUMPDEST SWAP3 POP DUP3 DUP3 ADD SWAP1 POP DUP1 DUP3 GT ISZERO PUSH2 0x5BB JUMPI PUSH2 0x5BA PUSH2 0x4D0 JUMP JUMPDEST JUMPDEST SWAP3 SWAP2 POP POP JUMP JUMPDEST PUSH0 DUP2 MLOAD SWAP1 POP SWAP2 SWAP1 POP JUMP JUMPDEST PUSH0 DUP3 DUP3 MSTORE PUSH1 0x20 DUP3 ADD SWAP1 POP SWAP3 SWAP2 POP POP JUMP JUMPDEST DUP3 DUP2 DUP4 MCOPY PUSH0 DUP4 DUP4 ADD MSTORE POP POP POP JUMP JUMPDEST PUSH0 PUSH1 0x1F NOT PUSH1 0x1F DUP4 ADD AND SWAP1 POP SWAP2 SWAP1 POP JUMP JUMPDEST PUSH0 PUSH2 0x603 DUP3 PUSH2 0x5C1 JUMP JUMPDEST PUSH2 0x60D DUP2 DUP6 PUSH2 0x5CB JUMP JUMPDEST SWAP4 POP PUSH2 0x61D DUP2 DUP6 PUSH1 0x20 DUP7 ADD PUSH2 0x5DB JUMP JUMPDEST PUSH2 0x626 DUP2 PUSH2 0x5E9 JUMP JUMPDEST DUP5 ADD SWAP2 POP POP SWAP3 SWAP2 POP POP JUMP JUMPDEST PUSH0 PUSH1 0x20 DUP3 ADD SWAP1 POP DUP2 DUP2 SUB PUSH0 DUP4 ADD MSTORE PUSH2 0x649 DUP2 DUP5 PUSH2 0x5F9 JUMP JUMPDEST SWAP1 POP SWAP3 SWAP2 POP POP JUMP JUMPDEST PUSH0 DUP2 ISZERO ISZERO SWAP1 POP SWAP2 SWAP1 POP JUMP JUMPDEST PUSH2 0x665 DUP2 PUSH2 0x651 JUMP JUMPDEST DUP3 MSTORE POP POP JUMP JUMPDEST PUSH0 PUSH1 0x40 DUP3 ADD SWAP1 POP DUP2 DUP2 SUB PUSH0 DUP4 ADD MSTORE PUSH2 0x683 DUP2 DUP6 PUSH2 0x5F9 JUMP JUMPDEST SWAP1 POP PUSH2 0x692 PUSH1 0x20 DUP4 ADD DUP5 PUSH2 0x65C JUMP JUMPDEST SWAP4 SWAP3 POP POP POP JUMP JUMPDEST PUSH2 0x6A2 DUP2 PUSH2 0x4FD JUMP JUMPDEST DUP3 MSTORE POP POP JUMP JUMPDEST PUSH0 PUSH1 0x40 DUP3 ADD SWAP1 POP DUP2 DUP2 SUB PUSH0 DUP4 ADD MSTORE PUSH2 0x6C0 DUP2 DUP6 PUSH2 0x5F9 JUMP JUMPDEST SWAP1 POP PUSH2 0x6CF PUSH1 0x20 DUP4 ADD DUP5 PUSH2 0x699 JUMP JUMPDEST SWAP4 SWAP3 POP POP POP JUMP JUMPDEST PUSH32 0x4E487B7100000000000000000000000000000000000000000000000000000000 PUSH0 MSTORE PUSH1 0x51 PUSH1 0x4 MSTORE PUSH1 0x24 PUSH0 REVERT INVALID MSIZE PUSH16 0x752063616E2774207069636B206D6F72 PUSH6 0x207175657374 PUSH20 0x20796F7520616C6C72656164792068617665206F PUSH15 0x65A26469706673582212201EB56239 PUSH4 0x7B363FD5 0xDA RJUMP 0xA4FF MUL 0xD2 EXP 0x4E DUP5 SWAP8 CREATE PUSH2 0xE0CE EQ DUP3 0xA8 0x2E TIMESTAMP 0x25 PUSH24 0xDE7964736F6C634300082200330000000000000000000000 "
		},
		"gasEstimates": {
			"creation": {
				"codeDepositCost": "379400",
				"executionCost": "56796",
				"totalCost": "436196"
			},
			"external": {
				"completeQuest()": "infinite",
				"getReward()": "infinite",
				"getStatus()": "infinite",
				"startQuest()": "infinite"
			}
		},
		"methodIdentifiers": {
			"completeQuest()": "2f9a57e6",
			"getReward()": "3d18b912",
			"getStatus()": "4e69d560",
			"startQuest()": "63ac6443"
		}
	},
	"abi": [
		{
			"inputs": [],
			"name": "completeQuest",
			"outputs": [],
			"stateMutability": "nonpayable",
			"type": "function"
		},
		{
			"inputs": [],
			"name": "getReward",
			"outputs": [],
			"stateMutability": "nonpayable",
			"type": "function"
		},
		{
			"inputs": [],
			"name": "getStatus",
			"outputs": [],
			"stateMutability": "view",
			"type": "function"
		},
		{
			"inputs": [],
			"name": "startQuest",
			"outputs": [],
			"stateMutability": "nonpayable",
			"type": "function"
		}
	]
}