{
	"data": {
		"bytecode": {
			"linkReferences": {},
			"object": "61032161004d600b8282823980515f1a6073146041577f4e487b71000000000000000000000000000000000000000000000000000000005f525f60045260245ffd5b305f52607381538281f3fe730000000000000000000000000000000000000000301460806040526004361061004a575f3560e01c80630477028b1461004e578063049e6fe414610058578063e22fff8714610076575b5f5ffd5b610056610080565b005b6100606100a3565b60405161006d91906101eb565b60405180910390f35b61007e6100ac565b005b6100a16040518060600160405280602a81526020016102c2602a91396100ec565b565b5f612710905090565b6100ea6040518060400160405280601481526020017f476f6c64207072696365206f7074696d697a65640000000000000000000000008152506100ec565b565b610182816040516024016101009190610274565b6040516020818303038152906040527f41304fac000000000000000000000000000000000000000000000000000000007bffffffffffffffffffffffffffffffffffffffffffffffffffffffff19166020820180517bffffffffffffffffffffffffffffffffffffffffffffffffffffffff8381831617835250505050610185565b50565b61019c8161019461019f6101be565b63ffffffff16565b50565b5f6a636f6e736f6c652e6c6f6790505f5f835160208501845afa505050565b6101c9819050919050565b6101d1610294565b565b5f819050919050565b6101e5816101d3565b82525050565b5f6020820190506101fe5f8301846101dc565b92915050565b5f81519050919050565b5f82825260208201905092915050565b8281835e5f83830152505050565b5f601f19601f8301169050919050565b5f61024682610204565b610250818561020e565b935061026081856020860161021e565b6102698161022c565b840191505092915050565b5f6020820190508181035f83015261028c818461023c565b905092915050565b7f4e487b71000000000000000000000000000000000000000000000000000000005f52605160045260245ffdfe54686520646973747269627574696f6e206f6620656e657267792077617320717569746520676f6f642ea26469706673582212200c4890b45139b4f44bdec6527b3a8436576be463963e22a5776dd0323584ef1164736f6c63430008220033",
			"opcodes": "PUSH2 0x321 PUSH2 0x4D PUSH1 0xB DUP3 DUP3 DUP3 CODECOPY DUP1 MLOAD PUSH0 BYTE PUSH1 0x73 EQ PUSH1 0x41 JUMPI PUSH32 0x4E487B7100000000000000000000000000000000000000000000000000000000 PUSH0 MSTORE PUSH0 PUSH1 0x4 MSTORE PUSH1 0x24 PUSH0 REVERT JUMPDEST ADDRESS PUSH0 MSTORE PUSH1 0x73 DUP2 MSTORE8 DUP3 DUP2 RETURN INVALID PUSH20 0x0 ADDRESS EQ PUSH1 0x80 PUSH1 0x40 MSTORE PUSH1 0x4 CALLDATASIZE LT PUSH2 0x4A JUMPI PUSH0 CALLDATALOAD PUSH1 0xE0 SHR DUP1 PUSH4 0x477028B EQ PUSH2 0x4E JUMPI DUP1 PUSH4 0x49E6FE4 EQ PUSH2 0x58 JUMPI DUP1 PUSH4 0xE22FFF87 EQ PUSH2 0x76 JUMPI JUMPDEST PUSH0 PUSH0 REVERT JUMPDEST PUSH2 0x56 PUSH2 0x80 JUMP JUMPDEST STOP JUMPDEST PUSH2 0x60 PUSH2 0xA3 JUMP JUMPDEST PUSH1 0x40 MLOAD PUSH2 0x6D SWAP2 SWAP1 PUSH2 0x1EB JUMP JUMPDEST PUSH1 0x40 MLOAD DUP1 SWAP2 SUB SWAP1 RETURN JUMPDEST PUSH2 0x7E PUSH2 0xAC JUMP JUMPDEST STOP JUMPDEST PUSH2 0xA1 PUSH1 0x40 MLOAD DUP1 PUSH1 0x60 ADD PUSH1 0x40 MSTORE DUP1 PUSH1 0x2A DUP2 MSTORE PUSH1 0x20 ADD PUSH2 0x2C2 PUSH1 0x2A SWAP2 CODECOPY PUSH2 0xEC JUMP JUMPDEST JUMP JUMPDEST PUSH0 PUSH2 0x2710 SWAP1 POP SWAP1 JUMP JUMPDEST PUSH2 0xEA PUSH1 0x40 MLOAD DUP1 PUSH1 0x40 ADD PUSH1 0x40 MSTORE DUP1 PUSH1 0x14 DUP2 MSTORE PUSH1 0x20 ADD PUSH32 0x476F6C64207072696365206F7074696D697A6564000000000000000000000000 DUP2 MSTORE POP PUSH2 0xEC JUMP JUMPDEST JUMP JUMPDEST PUSH2 0x182 DUP2 PUSH1 0x40 MLOAD PUSH1 0x24 ADD PUSH2 0x100 SWAP2 SWAP1 PUSH2 0x274 JUMP JUMPDEST PUSH1 0x40 MLOAD PUSH1 0x20 DUP2 DUP4 SUB SUB DUP2 MSTORE SWAP1 PUSH1 0x40 MSTORE PUSH32 0x41304FAC00000000000000000000000000000000000000000000000000000000 PUSH28 0xFFFFFFFFFFFFFFFFFFFFFFFFFFFFFFFFFFFFFFFFFFFFFFFFFFFFFFFF NOT AND PUSH1 0x20 DUP3 ADD DUP1 MLOAD PUSH28 0xFFFFFFFFFFFFFFFFFFFFFFFFFFFFFFFFFFFFFFFFFFFFFFFFFFFFFFFF DUP4 DUP2 DUP4 AND OR DUP4 MSTORE POP POP POP POP PUSH2 0x185 JUMP JUMPDEST POP JUMP JUMPDEST PUSH2 0x19C DUP2 PUSH2 0x194 PUSH2 0x19F PUSH2 0x1BE JUMP JUMPDEST PUSH4 0xFFFFFFFF AND JUMP JUMPDEST POP JUMP JUMPDEST PUSH0 PUSH11 0x636F6E736F6C652E6C6F67 SWAP1 POP PUSH0 PUSH0 DUP4 MLOAD PUSH1 0x20 DUP6 ADD DUP5 GAS STATICCALL POP POP POP JUMP JUMPDEST PUSH2 0x1C9 DUP2 SWAP1 POP SWAP2 SWAP1 POP JUMP JUMPDEST PUSH2 0x1D1 PUSH2 0x294 JUMP JUMPDEST JUMP JUMPDEST PUSH0 DUP2 SWAP1 POP SWAP2 SWAP1 POP JUMP JUMPDEST PUSH2 0x1E5 DUP2 PUSH2 0x1D3 JUMP JUMPDEST DUP3 MSTORE POP POP JUMP JUMPDEST PUSH0 PUSH1 0x20 DUP3 ADD SWAP1 POP PUSH2 0x1FE PUSH0 DUP4 ADD DUP5 PUSH2 0x1DC JUMP JUMPDEST SWAP3 SWAP2 POP POP JUMP JUMPDEST PUSH0 DUP2 MLOAD SWAP1 POP SWAP2 SWAP1 POP JUMP JUMPDEST PUSH0 DUP3 DUP3 MSTORE PUSH1 0x20 DUP3 ADD SWAP1 POP SWAP3 SWAP2 POP POP JUMP JUMPDEST DUP3 DUP2 DUP4 MCOPY PUSH0 DUP4 DUP4 ADD MSTORE POP POP POP JUMP JUMPDEST PUSH0 PUSH1 0x1F NOT PUSH1 0x1F DUP4 ADD AND SWAP1 POP SWAP2 SWAP1 POP JUMP JUMPDEST PUSH0 PUSH2 0x246 DUP3 PUSH2 0x204 JUMP JUMPDEST PUSH2 0x250 DUP2 DUP6 PUSH2 0x20E JUMP JUMPDEST SWAP4 POP PUSH2 0x260 DUP2 DUP6 PUSH1 0x20 DUP7 ADD PUSH2 0x21E JUMP JUMPDEST PUSH2 0x269 DUP2 PUSH2 0x22C JUMP JUMPDEST DUP5 ADD SWAP2 POP POP SWAP3 SWAP2 POP POP JUMP JUMPDEST PUSH0 PUSH1 0x20 DUP3 ADD SWAP1 POP DUP2 DUP2 SUB PUSH0 DUP4 ADD MSTORE PUSH2 0x28C DUP2 DUP5 PUSH2 0x23C JUMP JUMPDEST SWAP1 POP SWAP3 SWAP2 POP POP JUMP JUMPDEST PUSH32 0x4E487B7100000000000000000000000000000000000000000000000000000000 PUSH0 MSTORE PUSH1 0x51 PUSH1 0x4 MSTORE PUSH1 0x24 PUSH0 REVERT INVALID SLOAD PUSH9 0x652064697374726962 PUSH22 0x74696F6E206F6620656E657267792077617320717569 PUSH21 0x6520676F6F642EA26469706673582212200C4890B4 MLOAD CODECOPY 0xB4 DELEGATECALL 0x4B 0xDE 0xC6 MSTORE PUSH28 0x3A8436576BE463963E22A5776DD0323584EF1164736F6C6343000822 STOP CALLER "
		},
		"gasEstimates": {
			"creation": {
				"codeDepositCost": "160200",
				"executionCost": "231",
				"totalCost": "160431"
			},
			"external": {
				"CostOfImprovements()": "316",
				"OptimizeGoldPrive()": "infinite",
				"distributeEnergy()": "infinite"
			}
		},
		"methodIdentifiers": {
			"CostOfImprovements()": "049e6fe4",
			"OptimizeGoldPrive()": "e22fff87",
			"distributeEnergy()": "0477028b"
		}
	},
	"abi": [
		{
			"inputs": [],
			"name": "CostOfImprovements",
			"outputs": [
				{
					"internalType": "uint256",
					"name": "",
					"type": "uint256"
				}
			],
			"stateMutability": "pure",
			"type": "function"
		},
		{
			"inputs": [],
			"name": "OptimizeGoldPrive",
			"outputs": [],
			"stateMutability": "pure",
			"type": "function"
		},
		{
			"inputs": [],
			"name": "distributeEnergy",
			"outputs": [],
			"stateMutability": "pure",
			"type": "function"
		}
	]
}