{
	"data": {
		"bytecode": {
			"linkReferences": {
				"contracts/lesson3_lab1.sol": {
					"ResourceUtils": [
						{
							"length": 20,
							"start": 147
						},
						{
							"length": 20,
							"start": 238
						},
						{
							"length": 20,
							"start": 350
						}
					]
				}
			},
			"object": "6080604052348015600e575f5ffd5b5061025a8061001c5f395ff3fe608060405234801561000f575f5ffd5b506004361061003f575f3560e01c80630477028b14610043578063049e6fe41461004d578063e22fff871461006b575b5f5ffd5b61004b610075565b005b6100556100cf565b60405161006291906101b2565b60405180910390f35b610073610140565b005b73__$19927fead0c889c4c0719830d06d32de9b$__630477028b6040518163ffffffff1660e01b81526004015f6040518083038186803b1580156100b7575f5ffd5b505af41580156100c9573d5f5f3e3d5ffd5b50505050565b5f73__$19927fead0c889c4c0719830d06d32de9b$__63049e6fe46040518163ffffffff1660e01b8152600401602060405180830381865af4158015610117573d5f5f3e3d5ffd5b505050506040513d601f19601f8201168201806040525081019061013b91906101f9565b905090565b73__$19927fead0c889c4c0719830d06d32de9b$__63e22fff876040518163ffffffff1660e01b81526004015f6040518083038186803b158015610182575f5ffd5b505af4158015610194573d5f5f3e3d5ffd5b50505050565b5f819050919050565b6101ac8161019a565b82525050565b5f6020820190506101c55f8301846101a3565b92915050565b5f5ffd5b6101d88161019a565b81146101e2575f5ffd5b50565b5f815190506101f3816101cf565b92915050565b5f6020828403121561020e5761020d6101cb565b5b5f61021b848285016101e5565b9150509291505056fea264697066735822122066dddd0664cce2c5ce5432f2782ec36346a313780702c3fcd0ba0302765efca764736f6c63430008220033",
			"opcodes": "PUSH1 0x80 PUSH1 0x40 MSTORE CALLVALUE DUP1 ISZERO PUSH1 0xE JUMPI PUSH0 PUSH0 REVERT JUMPDEST POP PUSH2 0x25A DUP1 PUSH2 0x1C PUSH0 CODECOPY PUSH0 RETURN INVALID PUSH1 0x80 PUSH1 0x40 MSTORE CALLVALUE DUP1 ISZERO PUSH2 0xF JUMPI PUSH0 PUSH0 REVERT JUMPDEST POP PUSH1 0x4 CALLDATASIZE LT PUSH2 0x3F JUMPI PUSH0 CALLDATALOAD PUSH1 0xE0 SHR DUP1 PUSH4 0x477028B EQ PUSH2 0x43 JUMPI DUP1 PUSH4 0x49E6FE4 EQ PUSH2 0x4D JUMPI DUP1 PUSH4 0xE22FFF87 EQ PUSH2 0x6B JUMPI JUMPDEST PUSH0 PUSH0 REVERT JUMPDEST PUSH2 0x4B PUSH2 0x75 JUMP JUMPDEST STOP JUMPDEST PUSH2 0x55 PUSH2 0xCF JUMP JUMPDEST PUSH1 0x40 MLOAD PUSH2 0x62 SWAP2 SWAP1 PUSH2 0x1B2 JUMP JUMPDEST PUSH1 0x40 MLOAD DUP1 SWAP2 SUB SWAP1 RETURN JUMPDEST PUSH2 0x73 PUSH2 0x140 JUMP JUMPDEST STOP JUMPDEST PUSH20 0x0 PUSH4 0x477028B PUSH1 0x40 MLOAD DUP2 PUSH4 0xFFFFFFFF AND PUSH1 0xE0 SHL DUP2 MSTORE PUSH1 0x4 ADD PUSH0 PUSH1 0x40 MLOAD DUP1 DUP4 SUB DUP2 DUP7 DUP1 EXTCODESIZE ISZERO DUP1 ISZERO PUSH2 0xB7 JUMPI PUSH0 PUSH0 REVERT JUMPDEST POP GAS DELEGATECALL ISZERO DUP1 ISZERO PUSH2 0xC9 JUMPI RETURNDATASIZE PUSH0 PUSH0 RETURNDATACOPY RETURNDATASIZE PUSH0 REVERT JUMPDEST POP POP POP POP JUMP JUMPDEST PUSH0 PUSH20 0x0 PUSH4 0x49E6FE4 PUSH1 0x40 MLOAD DUP2 PUSH4 0xFFFFFFFF AND PUSH1 0xE0 SHL DUP2 MSTORE PUSH1 0x4 ADD PUSH1 0x20 PUSH1 0x40 MLOAD DUP1 DUP4 SUB DUP2 DUP7 GAS DELEGATECALL ISZERO DUP1 ISZERO PUSH2 0x117 JUMPI RETURNDATASIZE PUSH0 PUSH0 RETURNDATACOPY RETURNDATASIZE PUSH0 REVERT JUMPDEST POP POP POP POP PUSH1 0x40 MLOAD RETURNDATASIZE PUSH1 0x1F NOT PUSH1 0x1F DUP3 ADD AND DUP3 ADD DUP1 PUSH1 0x40 MSTORE POP DUP2 ADD SWAP1 PUSH2 0x13B SWAP2 SWAP1 PUSH2 0x1F9 JUMP JUMPDEST SWAP1 POP SWAP1 JUMP JUMPDEST PUSH20 0x0 PUSH4 0xE22FFF87 PUSH1 0x40 MLOAD DUP2 PUSH4 0xFFFFFFFF AND PUSH1 0xE0 SHL DUP2 MSTORE PUSH1 0x4 ADD PUSH0 PUSH1 0x40 MLOAD DUP1 DUP4 SUB DUP2 DUP7 DUP1 EXTCODESIZE ISZERO DUP1 ISZERO PUSH2 0x182 JUMPI PUSH0 PUSH0 REVERT JUMPDEST POP GAS DELEGATECALL ISZERO DUP1 ISZERO PUSH2 0x194 JUMPI RETURNDATASIZE PUSH0 PUSH0 RETURNDATACOPY RETURNDATASIZE PUSH0 REVERT JUMPDEST POP POP POP POP JUMP JUMPDEST PUSH0 DUP2 SWAP1 POP SWAP2 SWAP1 POP JUMP JUMPDEST PUSH2 0x1AC DUP2 PUSH2 0x19A JUMP JUMPDEST DUP3 MSTORE POP POP JUMP JUMPDEST PUSH0 PUSH1 0x20 DUP3 ADD SWAP1 POP PUSH2 0x1C5 PUSH0 DUP4 ADD DUP5 PUSH2 0x1A3 JUMP JUMPDEST SWAP3 SWAP2 POP POP JUMP JUMPDEST PUSH0 PUSH0 REVERT JUMPDEST PUSH2 0x1D8 DUP2 PUSH2 0x19A JUMP JUMPDEST DUP2 EQ PUSH2 0x1E2 JUMPI PUSH0 PUSH0 REVERT JUMPDEST POP JUMP JUMPDEST PUSH0 DUP2 MLOAD SWAP1 POP PUSH2 0x1F3 DUP2 PUSH2 0x1CF JUMP JUMPDEST SWAP3 SWAP2 POP POP JUMP JUMPDEST PUSH0 PUSH1 0x20 DUP3 DUP5 SUB SLT ISZERO PUSH2 0x20E JUMPI PUSH2 0x20D PUSH2 0x1CB JUMP JUMPDEST JUMPDEST PUSH0 PUSH2 0x21B DUP5 DUP3 DUP6 ADD PUSH2 0x1E5 JUMP JUMPDEST SWAP2 POP POP SWAP3 SWAP2 POP POP JUMP INVALID LOG2 PUSH5 0x6970667358 0x22 SLT KECCAK256 PUSH7 0xDDDD0664CCE2C5 0xCE SLOAD ORIGIN CALLCODE PUSH25 0x2EC36346A313780702C3FCD0BA0302765EFCA764736F6C6343 STOP ADDMOD 0x22 STOP CALLER "
		},
		"gasEstimates": {
			"creation": {
				"codeDepositCost": "120400",
				"executionCost": "163",
				"totalCost": "120563"
			},
			"external": {
				"CostOfImprovements()": "infinite",
				"OptimizeGoldPrive()": "infinite",
				"distributeEnergy()": "infinite"
			}
		},
		"methodIdentifiers": {
			"CostOfImprovements()": "049e6fe4",
			"OptimizeGoldPrive()": "e22fff87",
			"distributeEnergy()": "0477028b"
		}
	},
	"abi": [
		{
			"inputs": [],
			"name": "CostOfImprovements",
			"outputs": [
				{
					"internalType": "uint256",
					"name": "",
					"type": "uint256"
				}
			],
			"stateMutability": "pure",
			"type": "function"
		},
		{
			"inputs": [],
			"name": "OptimizeGoldPrive",
			"outputs": [],
			"stateMutability": "pure",
			"type": "function"
		},
		{
			"inputs": [],
			"name": "distributeEnergy",
			"outputs": [],
			"stateMutability": "pure",
			"type": "function"
		}
	]
}